:100000000C942A000C9447000C9447000C94470071
:100010000C9447000C9447000C9447000C94470044
:100020000C9447000C9447000C9447000C94A404D3
:100030000C9447000C9447000C9447000C94470024
:100040000C9447000C9447000C9447000C94470014
:100050000C94470011241FBECFE5D8E0DEBFCDBF12
:1000600010E0A0E6B0E0E0EBF9E002C005900D92F0
:10007000A23CB107D9F720E0A2ECB0E001C01D928C
:10008000A53CB207E1F70E94FC010C94D6040C9445
:10009000000081B3877F81BB81B38F7D81BB81B33A
:1000A0008F7B81BB81B38F7781BB82B3886082BB3A
:1000B00082B3806282BB82B3806482BB82B3806879
:1000C00082BB84B3846084BB84B3886084BB84B304
:1000D000806184BB84B3806284BB8FE19EE401971E
:1000E000F1F700C0000008958FEFE5E062C095B31E
:1000F0009C6395BB95B36E2F70E021E030E00E2E2F
:1001000002C0220F331F0A94E2F72095292325BB52
:1001100097E04BC0943009F4915020B3492F50E040
:1001200030E0092E02C0359527950A94E2F720FDAC
:100130003BC02FEF39ECF8E021503040F040E1F7C0
:1001400000C0000020B330E0092E02C0359527958D
:100150000A94E2F720FD28C0933099F485E090E0FE
:10016000861B970B26E030E0241B350B880F991F68
:10017000880F991F805A9F4FDC01A20FB31F8C91EB
:1001800017C085E090E0861B970B27E030E0241B2A
:10019000350B880F991F880F991F805A9F4FDC01DC
:1001A000A20FB31F8C9104C09150933008F0B2CFCE
:1001B000E150E23008F09BCF08959BB3977F9BBB43
:1001C00098B3987E98BB282F22952F70922F987005
:1001D000492F50E0440F551F2770422B98B3492BED
:1001E00048BB9BB39B7F9BBB9BB394609BBBE9EFDE
:1001F000F0E03197F1F700C000009BB39B7F9BBB01
:1002000098B3987E98BB982F9870292F30E0220FD2
:10021000331F8770282B88B3282B28BB8BB38B7F89
:100220008BBB8BB384608BBB89EF90E00197F1F7B8
:1002300000C000008BB38B7F8BBBE1EEF4E0319705
:10024000F1F700C0000008958AB384608ABB8AB3C6
:1002500088608ABB87B3816087BB87B3826087BBB6
:1002600087B3846087BB87B3806187BB85EA9EE0E4
:100270000197F1F700C0000082E00E94DD0088E2F3
:100280000E94DD008CE00E94DD0080E80E94DD001D
:1002900081E00E94DD0008959BB398609BBB98B3FA
:1002A000987E98BB282F22952F70922F9870492FF7
:1002B00050E0440F551F2770422B98B3492B48BB81
:1002C0009BB39B7F9BBB9BB394609BBBE9EFF0E030
:1002D0003197F1F700C000009BB39B7F9BBB98B3A5
:1002E000987E98BB982F9870292F30E0220F331FEB
:1002F0008770282B88B3282B28BB8BB38B7F8BBBB5
:100300008BB384608BBB89EF90E00197F1F700C05D
:1003100000008BB38B7F8BBBE1EEF4E03197F1F7FC
:1003200000C0000008950F931F93CF93DF938C01BB
:10033000C0E0D0E003C00E944C012196F801EC0F10
:10034000FD1F80818111F7CFDF91CF911F910F9118
:10035000089581E00E94DD0008958AB380618ABB20
:100360008AB380628ABB8AB380648ABB87B38068A1
:1003700087BB8BB38F7E8BBB8BB38F7D8BBB8BB3DC
:100380008F7B8BBB88B38F7788BB85EA9EE0019714
:10039000F1F700C000000895843021F48BB3806130
:1003A0008BBB0895833021F48BB380628BBB08959F
:1003B000823021F48BB380648BBB0895813019F4B3
:1003C00088B3806888BB0895843021F48BB38F7E16
:1003D0008BBB0895833021F48BB38F7D8BBB089545
:1003E000823021F48BB38F7B8BBB0895813019F45D
:1003F00088B38F7788BB0895DF92EF92FF920F93B7
:100400001F93CF93DF93CDB7DEB760970FB6F89405
:10041000DEBF0FBECDBF0E946E040E94AD010E94E0
:1004200024010E94490080E790E00E949301E12CA2
:10043000F12C0E9474008F3F09F4A3C0803361F453
:1004400087E30E944C01E1E0F0E0EC0FFD1FEE0DB0
:10045000FF1D87E3808384C0813361F488E30E94B9
:100460004C01E1E0F0E0EC0FFD1FEE0DFF1D88E315
:10047000808376C0823361F489E30E944C01E1E01D
:10048000F0E0EC0FFD1FEE0DFF1D89E3808368C0D7
:10049000843359F40E944C01E1E0F0E0EC0FFD1FC1
:1004A000EE0DFF1D84E380835BC0853359F40E9409
:1004B0004C01E1E0F0E0EC0FFD1FEE0DFF1D85E3C8
:1004C00080834EC0863359F40E944C01E1E0F0E095
:1004D000EC0FFD1FEE0DFF1D86E3808341C08833C6
:1004E00061F481E30E944C01E1E0F0E0EC0FFD1FBC
:1004F000EE0DFF1D81E3808333C0893361F482E315
:100500000E944C01E1E0F0E0EC0FFD1FEE0DFF1D3D
:1005100082E3808325C0813461F483E30E944C012F
:10052000E1E0F0E0EC0FFD1FEE0DFF1D83E38083A3
:1005300017C0833429F40E94A901E12CF12C79CF52
:10054000843461F480E30E944C01E1E0F0E0EC0FC0
:10055000FD1FEE0DFF1D80E3808302C08534B1F0E6
:100560008CE20E944C01E1E0F0E0EC0FFD1FEE0D8B
:10057000FF1D808190E0C0970E9481042FEFE21A56
:10058000F20A80E1E816F10409F053CF0E94A901B4
:1005900089E990E00E9493010E947400D82E9FEF99
:1005A0008917D1F320E3821308C087E30E944C012E
:1005B0000F2EF7E3DF2EF02D64C081E3D81208C0C0
:1005C00088E30E944C010F2EF8E3DF2EF02D59C076
:1005D00092E3D91208C089E30E944C010F2EF9E37F
:1005E000DF2EF02D4EC024E3D21204C084E30E941B
:1005F0004C0147C085E3D81203C00E944C0141C0A2
:1006000096E3D91204C086E30E944C013AC028E365
:10061000D21208C081E30E944C010F2EF1E3DF2EBD
:10062000F02D2FC089E3D81208C082E30E944C014C
:100630000F2EF2E3DF2EF02D24C091E4D91208C072
:1006400083E30E944C010F2EF3E3DF2EF02D19C03F
:1006500023E4D21207C00E94A9018FEA90E00E9411
:1006600093010FC084E4D81208C080E30E944C01BB
:100670000F2EF0E3DF2EF02D04C00F2EF1E3DF2E5E
:10068000F02D00E010E016C1E1E0F0E0EC0FFD1FFE
:10069000E00FF11F8081D8120BC1C8010E948104B4
:1006A0000115110569F484E00E94E40183E00E94D1
:1006B000E40182E00E94E40181E00E94E401EFC0D5
:1006C0000130110569F484E00E94E40183E00E9496
:1006D000E40182E00E94E40181E00E94CC01DFC0DD
:1006E0000230110569F484E00E94E40183E00E9475
:1006F000E40182E00E94CC0181E00E94E401CFC0CD
:100700000330110569F484E00E94E40183E00E9453
:10071000E40182E00E94CC0181E00E94CC01BFC0D4
:100720000430110569F484E00E94E40183E00E9432
:10073000CC0182E00E94E40181E00E94E401AFC0AC
:100740000530110569F484E00E94E40183E00E9411
:10075000CC0182E00E94E40181E00E94CC019FC0B4
:100760000630110569F484E00E94E40183E00E94F0
:10077000CC0182E00E94CC0181E00E94E4018FC0A4
:100780000730110569F484E00E94E40183E00E94CF
:10079000CC0182E00E94CC0181E00E94CC017FC0AC
:1007A0000830110569F484E00E94CC0183E00E94C6
:1007B000E40182E00E94E40181E00E94E4016FC054
:1007C0000930110569F484E00E94CC0183E00E94A5
:1007D000E40182E00E94E40181E00E94CC015FC05C
:1007E0000A30110569F484E00E94CC0183E00E9484
:1007F000E40182E00E94CC0181E00E94E4014FC04C
:100800000B30110569F484E00E94CC0183E00E9462
:10081000E40182E00E94CC0181E00E94CC013FC053
:100820000C30110569F484E00E94CC0183E00E9441
:10083000CC0182E00E94E40181E00E94E4012FC02B
:100840000D30110569F484E00E94CC0183E00E9420
:10085000CC0182E00E94E40181E00E94CC011FC033
:100860000E30110569F484E00E94CC0183E00E94FF
:10087000CC0182E00E94CC0181E00E94E4010FC023
:100880000F30110561F484E00E94CC0183E00E94E6
:10089000CC0182E00E94CC0181E00E94CC019FEF5C
:1008A00028E08DE3915020408040E1F700C0000037
:1008B0000F5F1F4F0E151F050CF4E6CE80E090E091
:1008C00060960FB6F894DEBF0FBECDBFDF91CF911B
:1008D0001F910F91FF90EF90DF90089587B3816093
:1008E00087BB87B3826087BB87B3846087BB87B3CE
:1008F000806187BB88B3806488BB88B3806288BB13
:1009000008958A30910574F428B3287E28BB48B333
:100910009C0128703327220F331F8770822B842B72
:1009200088BB089528B3206228BB0A9728B3287E85
:1009300028BB48B39C0128703327220F331F8770D0
:10094000822B842B88BB08951F920F920FB60F92B3
:1009500011242F933F934F935F936F937F938F93C4
:100960009F93AF93BF93EF93FF938091C2008F5FEC
:100970008093C2008E3349F41092C200E091C3000C
:10098000F091C400309709F00995FF91EF91BF9164
:10099000AF919F918F917F916F915F914F913F9117
:1009A0002F910F900FBE0F901F901895F894FFCFC6
:1009B0003031323334353637383941424344454695
:1009C0002020207072657373206F6E2F6320746F08
:1009D00020656E746572206E756D7320616E642083
:1009E0003D20746F20656E640020456E7465722032
:1009F000736561726368206E756D6265723A004559
:100A00006E74657220736561726368206E756D3AED
:020A10000000E4
:00000001FF
